:10000000D0210020351C0000311C0000311C0000F4
:1000100000000000000000000000000000000000E0
:10002000000000000000000000000000311C000083
:100030000000000000000000311C0000C51C000092
:10004000311C0000311C0000311C0000311C00007C
:100050004D010000311C0000311C00004D1000005B
:100060005D1000006D1000007D1000008D1000007C
:100070009D100000311C0000311C0000311C0000EC
:10008000311C0000311C0000311C0000311C00003C
:10009000311C0000311C0000311C0000311C00002C
:1000A000311C000010B5064C2378002B07D1054BFE
:1000B000002B02D0044800E000BF0123237010BDD4
:1000C000740000200000000090280000084B10B5CC
:1000D000002B03D00749084800E000BF0748036829
:1000E000002B00D110BD064B002BFBD09847F9E741
:1000F00000000000780000209028000090280000F8
:100100000000000010B51723002A06D1064B890015
:10011000CC58002C03D1C8502300180010BD130088
:100120008442FAD01D23F8E7DC00002017230029C1
:1001300006D11F2806D8163B8340034AD3600B0024
:1001400018007047C960FFDE00180040002370B53A
:1001500001250B4C237023780F2B00D970BD29008B
:100160009940084A1069084206D01161064A9B006E
:100170009B58002B00D09847237801332370EAE77F
:10018000D800002000180040DC000020014B587807
:10019000C009704700180040022310B5044A1178C6
:1001A0000B431370034B98470028FBD110BDC0468A
:1001B000001800408D010000402307B5104A0320BD
:1001C00091690B439361002301A90B700D4B984774
:1001D0000D4B0320984701230C4A11780B431370F1
:1001E0000B4B98470028FBD102000A4B1A500430F1
:1001F0004028FBD11022084B1A60084B984707BDD6
:1002000000040040011B0000791A000000180040A3
:100210008D010000DC00002000E100E099010000F9
:100220000023012203604360837202330272427230
:10023000C3727047F7B50C000026237901A94E70F0
:10024000CE700B70237A05008B702078134B984783
:1002500033001F2D00D8124B0721A27A29408900B4
:10026000E67A002A01D0082216430F278E408F40DD
:100270003100EA0892009A189069B84301439161ED
:10028000617A0122002904D0AA4059690A435A61BF
:10029000F7BDAA40596991435961F9E7D51B0000A0
:1002A000001800400268138A1BB2002BFBDB70476A
:1002B00002220368997B114206D09A731B8A41205F
:1002C00013420AD1002008E01A8A5207FAD5C02248
:1002D0001820596892020A435A60704770B500228C
:1002E0000126022401688B7B334002D18D7B25429D
:1002F00001D0002005E00132038992B29342F2D886
:10030000122070BD0123F0B50A880568520013431E
:1003100085B00191DBB24C882B752A4B06009847BB
:100320006B68294A13406B60002804D13000274BCA
:100330009847071E13D005B0F0BD20222B8A134228
:100340003DD0F37A002B11D0029B002B0ED18022DE
:100350006B68D20213436B600097009F029C631E80
:100360009BB20293002CE8D100970FE03000184BAD
:1003700098477B1C9BB2019A00932B7E52683000F9
:10038000D355104B03929847041EE6D0B37A104F12
:100390003000002B0ED0B847C0236A689B0213437D
:1003A0006B603000B847019B2A7E5B680099200093
:1003B0005A54C0E7B84780236A685B02EFE74120E0
:1003C000B9E7C046DD020000FFFFFBFFB1020000FD
:1003D000A5020000F7B50F0005004B8806680193E1
:1003E0001E4B98473B8828005B00DBB233751C4BE3
:1003F0009847041E15D128001A4B9847041E10D1A7
:100400000090009B019A93420DD10024AB7A002BFF
:1004100007D0124B28009847C02372689B021343F1
:1004200073602000FEBD2022338A134214D02800BE
:100430000A4B98477B68009A28009B5C3376084BF0
:100440009847041EE2D1009A338A013200920422B6
:100450001342D6D01E24D9E74124E2E7A5020000CA
:10046000DD020000B1020000F0B5060085B0316089
:1004700008004E4B14000F0098470125831C9D4037
:100480002B004B4A0D30116AC5B20B43136223791E
:1004900002AA137011002800464B98472800464BCB
:1004A0009847464B2079002198473B681C209B07C2
:1004B0007AD401233D6817381D4075D13B4B306815
:1004C00098473F493F4B01909847019B35769A00EA
:1004D0003D4B7576D650B31D7583B583DD771423F8
:1004E00035623B603768314B38009847802302AA59
:1004F000137155711300012201906069DD719A71C9
:10050000A569002803D10100304B3800984702ABA1
:100510001871022302AA000C5371C0B203A92C4B1C
:100520009847002D04D101213800284B9847050039
:10053000022202AB280C5A711D71C0B2244B03A9D0
:100540009847A389F380E3893381227C8023002AA2
:1005500006D102251F4B9B781D406B1E9D41EB0170
:10056000A5681D43237F002B02D08023DB051D439C
:10057000226A3B68019813431D4380230D305B00C2
:100580003D60C0B27B60144B9847FA212368C900D4
:1005900059434B1E1818114B9847431F4020FF2BFF
:1005A00002D800209BB27B8105B0F0BD590B000042
:1005B00000040040011B0000791A0000B909000086
:1005C00021070000E90F00001C010020FD090000C8
:1005D000D51B0000002000411D1B0000E11D000094
:1005E00010B5828B03000520002A05D101329A72D2
:1005F000DA721800014B984710BDC0460503000091
:1006000010B5828B03000520002A05D101329A72B1
:10061000DA721800014B984710BDC046D5030000A0
:100620000268138A1BB2002BFBDB7047F8B5468BC0
:10063000838B0400F61A838B0568013B9BB283838E
:10064000838BB6B2124F002B1ED1C37A002B04D07D
:1006500080236A68DB0213436B60A37A2000002BBF
:100660000DD0B847C0236A689B0213436B6020001B
:10067000B847236A9E192B7EDBB23370F8BDB847AA
:1006800080236A685B02F0E76B68024A1340EDE77B
:1006900021060000FFFFFBFF70B506680400338AE7
:1006A0005B0703D51E230634E37770BD458B838B30
:1006B000ED1A838BADB2013B9BB28383034B98470A
:1006C000236A5D192B78DBB23376EEE72106000052
:1006D000931C9B00C318596001239340017E0B4378
:1006E000DBB20376704770B5848B0525A4B2002C6D
:1006F00013D101228272C2724B68066803624B8872
:1007000083834319DA7703230630C57773730B8825
:10071000250093401A43D2B23275280070BD000004
:10072000F8B5564B8000C458637E277E25681F406D
:10073000638BA61D002B2DD1A38B002B2AD0012368
:10074000AA7B1A4205D0AB732B8A9B0701D54123A4
:10075000F3772B8A5B070ED51823F3770023A38347
:10076000A37A002B07D0464B20009847C0236A6825
:100770009B0213436B60A38B9BB26383F37F052BB8
:100780002AD1631DDB7F2000002B00D06DE03D4BA4
:10079000984721E0638B002B5AD0A38B002B57D1B5
:1007A000F37F052B54D1631DDB7FDBB2002B4FD1D0
:1007B00003222A736383F377A37A002B45D0304B4F
:1007C00020009847C0236A689B0213436B60FB07B5
:1007D00002D5E36820009847638B002B16D0A38BCB
:1007E0009BB2002B12D1F27F052A0FD1621DD17F5F
:1007F00001290BD1023129736383F377BB0736D507
:10080000D37F012B33D1236920009847F37F052B39
:100810001AD0F37F002B17D003232B73002363839D
:10082000A383F37F412B0AD0A37A002B07D0144B6C
:1008300020009847E0236A68DB0213436B607B0764
:1008400002D5636920009847F8BD0123AB73BEE76A
:10085000638B002BC0D0A38B002BBDD02B8A9B06B3
:1008600000D58EE74123F377B6E7074B90E7FB0708
:10087000CCD5D37F002BC9D1E368C5E71C0100208C
:1008800021060000990600002D060000F0B50024A6
:1008900089B0009201933F2300260027250006908F
:1008A00007910393039A134B012000219847B6192F
:1008B0007F41069B079A03400A400496059713431D
:1008C00003D0012333431E00059F019BBB4209D87F
:1008D00002D1009BB34205D8009A019BB61A9F41F2
:1008E00004430D43039B5A1E0392DBD220002900D0
:1008F00009B0F0BDF91E000010B54908040000233E
:100900004020A14201D210BD0300581C091B80B237
:100910008C42F9D94020FF2BF5D813800020F2E754
:10092000F0B585B01E000AAB0D00197803004B43EB
:1009300003924027AB4217D8002E18D10200330093
:1009400008001B4C3100A0472A0001003300194C5D
:100950003000A04700220123121A8B41140C180406
:1009600004430027039B1C80380005B0F0BD002421
:10097000012EF6D10A00230021000D4EB047009051
:1009800001910B000200210028000A4CA04780239F
:1009900006009B019842E7D8009A019B690FE80086
:1009A000A047F400041BE4B264033443D9E7C04613
:1009B000111F00008D08000037B50D4C050023788D
:1009C000002B01D000290CD001A90C20094B0D707F
:1009D00098470C20084B984701230020657023702E
:1009E0003EBD63780800AB42FAD01D20F8E7C04650
:1009F00090000020011B0000791A0000394A030012
:100A000000B50800934233D007D8374A934214D038
:100A1000364A93421FD0002317E0354A93423AD01A
:100A2000344A934244D0344A9342F4D100230329F8
:100A30000BD801F0CBF9502A2C2E0023032904D81F
:100A400001F0C4F9430205072C4B180000BD2C4BE4
:100A5000FBE72C4BF9E700230329F6D801F0B6F9A0
:100A600037020406284BF0E7284BEEE7284BECE76B
:100A700000230329E9D801F0A9F92C020406254B2B
:100A8000E3E7254BE1E7254BDFE7254BDDE7254B8A
:100A9000DBE7254BD9E700230329D6D801F096F9E7
:100AA0001D020406214BD0E7214BCEE7214BCCE7BA
:100AB00000230329C9D801F089F9120204061E4B4C
:100AC000C3E71E4BC1E71E4BBFE71E4BBDE7032329
:100AD000BBE71D4BB9E71D4BB7E71D4BB5E71D4BFA
:100AE000B3E7C0460010004200080042000C00427C
:100AF00000180042001C00420014004203000500E0
:100B000003000600030007000300010003001E00AD
:100B100003001F000300090003000A0003000B008C
:100B200003001100030012000300130003000D0076
:100B300003000E0003000F0003001700030018005D
:100B40000300190003000400030008000300100064
:100B500003000C000300160070B586B06946094B0F
:100B60006A4670CB70C170CB70C100239900515898
:100B7000814202D1D8B206B070BD0133062BF5D147
:100B80000020F8E7002800000268138A1BB2002B3F
:100B9000FBDB7047F0B507008FB0734B396008007E
:100BA000160002919847029B04001A680123052051
:100BB0001A4200D0BDE0029A173015680222154093
:100BC00000D0B6E0A01C8340684A0D34116AE4B23C
:100BD0000B431362737F08A90B702000644B984786
:100BE0002000644B98472900634B707F9847F37A45
:100BF0000AAC7B71337DBB71737DFB713B680393E2
:100C00001800594B9847336825800493F36875683A
:100C10000593B37D0D300693002D00D18BE080232A
:100C20005B059D420ED1F37D002B0BD13369C0B221
:100C30000793524B984722000100514B0798984761
:100C4000002876D14F4B3800984706AB1B8A039A91
:100C50005381049B059A13431D43069B5C07F37D58
:100C60002C43002B01D104331C43357D737D6D046F
:100C70001B042B43F27AB57A15431D433389FF2BAE
:100C800003D08022520414431D43337F002B03D131
:100C90003D4B9B789B0701D580231C433800394B83
:100CA0009847039B38005D60364B9847039B0025AF
:100CB0001C60802309AC2370336A65700A93736AE1
:100CC000E5700B93B36AA5700C93F36A03930D93CD
:100CD000102006AAAB001218D058E9B2002802D1A1
:100CE00002982A4B9847431C05D02070000CC0B2D4
:100CF0002100274B98470135042DE9D100247B1CA6
:100D0000FC83BC60FC603C61BC617C61BC83DC77C3
:100D1000BB1CDC77FB1CDC773B1DDC773868124B97
:100D2000984705001B4B1C49984720001B4BAD0002
:100D3000EF500FB0F0BDF37D002B08D01023220040
:100D400000932B00B1693069154CA04778E73369EF
:100D5000C0B20793094B984710230100009322006B
:100D60002B000798F0E7C046590B00000004004034
:100D7000011B0000791A0000B90900001D1B0000CA
:100D8000F9080000890B000000200041FD09000067
:100D9000D51B0000E90F0000D50E00001C0100204B
:100DA0002109000070B5C2790D001C23002A0CD067
:100DB000C28B173B002A08D1054B046898470223D1
:100DC0002583A27B1A42FCD00023180070BDC046C8
:100DD000890B0000F7B506000F0015001720002A48
:100DE00027D0F3790530002B23D0336830000193EE
:100DF000184B9847002480235B020121019A927BC3
:100E00000A4217D0727963189BB2395D012A16D055
:100E10001C0089B2013D30000F4BADB29847002D48
:100E2000E9D1802302225B020199897B11420CD017
:100E30000020FEBD013B002BDFD11220F9E7FB5C57
:100E400002341B02A4B21943E4E7013B002BEBD1AF
:100E5000F3E7C046890B0000A50D0000F7B50500BB
:100E600003680E0001930B4B17009847EC8B0A4B5D
:100E7000A4B2002C02D098470520FEBDEF8398470E
:100E80000523AE61019A0435EB77043B53732000D0
:100E9000F3E7C046B9160000ED160000931C9B0056
:100EA0001950012393401A000130C37F1343C377C5
:100EB0007047000010B51723002A06D0C479053307
:100EC000002C02D0024B98470300180010BDC0460A
:100ED0005D0E0000F8B5424B8000C45825682B8A8F
:100EE0001BB2002BFBDBAB7B6F7B621C1F40A31C88
:100EF000DE7F0123D27F16401F4218D0E28B002AEA
:100F00003ED0A269511C1378A1616179DBB201293D
:100F100030D09BB2DB05DB0D2B83E38B013B9BB217
:100F2000E383002B03D101332B7301336B73022353
:100F30001F4208D000222B73231DDA77F30702D556
:100F40002000A36898470422174212D0A38B002BDD
:100F500044D02B8ADBB2590721D002210B4211D099
:100F6000E31C1632DA772982730702D52369200041
:100F70009847F8BD5178023209020B43A261C9E7D4
:100F80002B73D4E7134204D01E21E31CD9772A82A5
:100F9000EAE701221342E7D0E31C1321F6E72B8B8B
:100FA0006169DB05DB0DDAB20A706269511C6161AF
:100FB0006179012904D11B0A5370636901336361AC
:100FC000A38B013B9BB2A383002BD2D104222A73B3
:100FD000E21CD377B307CCD5E368C8E72A73C8E728
:100FE0001C01002070470000F0B5094C094A237825
:100FF000002B09D11E00084F084DD750EE50043386
:10100000182BFAD1173B237080001150F0BDC04659
:101010009200002094000020E50F00001C01002039
:1010200007B507236A461370013353700133937079
:101030000133D3700133137101335371024B98475D
:101040006B4618560EBDC046590B000010B5024B3A
:1010500000201B68984710BD9400002010B5024B7B
:1010600001205B68984710BD9400002010B5024B2A
:1010700002209B68984710BD9400002010B5024BD9
:101080000320DB68984710BD9400002010B5024B88
:1010900004201B69984710BD9400002010B5024B36
:1010A00005205B69984710BD9400002030B50925E4
:1010B00085B02A00084901A8084B9847084C2A0027
:1010C00001A92000074B9847052207492000074B3C
:1010D000984705B030BDC04627280000AD1F00006E
:1010E00040010020D50D000070010020B50E000069
:1010F00010B502490248034B984710BD6401002017
:1011000078010020E7060000802210B5044BD201D0
:10111000DA61044903220448044B984710BDC046D5
:10112000004400410000002040010020D50D0000D7
:1011300030B580238DB06946FF22DB050093002384
:101140000A81962201938B72CB728B75CB750693B5
:101150000B774B7708930993C423920104920122E1
:101160009B030393114B0A750A93114B4A750B931A
:10117000104D6A4610492800104B98470028F7D1B7
:101180002C680F4B200098471F2318401E3B8340BC
:101190000C4A13602A68138A1BB2002BFBDB022364
:1011A0002268134323600DB030BDC0460200180012
:1011B000020019004001002000140042950B0000BD
:1011C0002110000000E100E070B5084C084D20003F
:1011D00000220849A847200001220749A847032305
:1011E0000234E27F1343E37770BDC0464001002024
:1011F0009D0E000009110000AD1000001FB50F2466
:10120000054922006846054B984722006946044B71
:10121000044898471FBDC04618280000AD1F0000B5
:10122000D50D000040010020642380211B4A70B5C9
:1012300013600023890391600121137113741377E4
:101240001362D7339384164B164DD381164B494204
:101250005361164B9181936115492800154B9847AE
:101260002C68238A1BB2002BFBDB0223226813436A
:1012700023602868104B98471F2318401E3B83406B
:101280000E4A136000231022E888218A114203D1FC
:1012900001338342F9D3228270BDC046A0010020F1
:1012A0001027000078010020030008000300090057
:1012B00000100042690400002110000000E100E07D
:1012C00010B5054C002205492000054B9847012325
:1012D000627E1343637610BD78010020F110000098
:1012E000D1060000F8B51C006D460834E408E4009F
:1012F0002C1B00AFA5466D46297000219BB28CB215
:10130000A34210D800220F4C013363800E4B208083
:1013100065601A725A7221000C480D4B98470028DC
:1013200006D1BD46F8BD565C6C1866700131E6E723
:10133000084A1388591C11800A2BECD10120404225
:10134000EFE7C0463401002064010020780100204E
:1013500001060000AC000020F7B51E006B46154CDE
:10136000D971073363600123638000231700208055
:1013700023726372104D21002800104B98470028FB
:101380000ED167606680210028000D4B9847002829
:101390000ED00C4A1388591C11800A2BF3D105E09A
:1013A000084A1388591C11800A2BE3D101204042BE
:1013B000FEBDC04664010020780100200106000047
:1013C000E1050000AC00002070B5094B00209847F3
:1013D000FA21084C89000500A047074B074918600F
:1013E0002800A0470522064B1860064B1A6070BD06
:1013F000F1190000E11D00000400002040420F0030
:101400000800002010E000E030B580240021074BE8
:1014100064021A68064B013800D230BD002AFAD0A7
:101420005A6099601D682542FCD0F4E70400002052
:1014300010E000E007B5802201AB1A700A785A70FC
:101440004A789A708A781900DA70014B984707BD7C
:10145000D51B0000054A064B1168802292034906FD
:1014600001D49A6170475A61FCE7C046A04400412C
:10147000004400418022044BD201196A090401D4BE
:101480009A6170475A61FCE700440041012307B5A7
:10149000002201A94B700B700E20044B8A709847F4
:1014A0008022034BD2019A6107BDC046351400006B
:1014B000004400410022012373B501AC0E4E21000F
:1014C0001420A27063702370B04780230B4D5B0320
:1014D000AB6121000520B04720232100AB6115201E
:1014E000B04780239B03AB6121002F20B0478023AE
:1014F00098351B022B6073BD351400000044004179
:101500001FB501AC2000074B984700230F206360F4
:10151000013323720233E3722100034B0190984799
:101520001FBDC04621020000350200001FB501ACFE
:101530002000074B98472523019300236360013364
:1015400023720233E37221000520024B98471FBD2E
:1015500021020000350200001FB501AC2000074B3E
:1015600098472623019300236360013323720233DB
:10157000E37221000620024B98471FBD21020000A4
:10158000350200001FB501AC2000074B9847272308
:10159000019300236360013323720233E37221005D
:1015A0000720024B98471FBD2102000035020000B2
:1015B00070B500220F4D0F210F48A8470F4C002196
:1015C0000F20A0470E4E002230000521A847002121
:1015D0000520A047002230000621A8470021062050
:1015E000A047002230000721A84700210720A0477C
:1015F00070BDC04605010000751400002D010000FB
:10160000551400001A4B10B500209847194B0138AB
:1016100098420DD8C021184A090650601748036A3D
:101620001B021B0A0B430362002393600733136002
:10163000134B9847134B9847134B9847134B9847B6
:10164000134B9847134B9847134B9847134B9847A6
:10165000134B9847134B9847134B9847134B984796
:101660000122134B1A70BFF35F8F62B610BDC046E4
:10167000F1190000FFFFFF0010E000E000ED00E0C6
:101680008D140000B5140000C913000031110000D2
:10169000C911000029120000C1120000011500004C
:1016A0002D1500005915000085150000B11500002A
:1016B0000C00002070470000094B196800290BD16D
:1016C000EFF31080074A002805D172B6BFF35F8F91
:1016D00005490870012111701A6801321A607047BB
:1016E000B0000020B40000200C000020084B1A6855
:1016F000013A1A601B68002B09D1064B1B78002B9E
:1017000005D00122044B1A70BFF35F8F62B6704799
:10171000B0000020B40000200C00002010B5072805
:1017200005D800F053FB06040427271009130020F6
:1017300010BD134BD868FBE7124B13481B6A9B057F
:101740009B0FD840F4E70E4B1869F1E70C4C0020D2
:1017500023689B07ECD510230A49CA681A42FCD0BB
:1017600023685B0709D5094B00209847A3689BB203
:101770005843DDE780200002DAE70548D8E7C04695
:10178000B80000200008004000127A001D1B000075
:10179000006CDC0270B58478027845780120402620
:1017A0000540204080240849AD010B6AC001B343C5
:1017B0002B43A34303430320024004481202034087
:1017C00013430B6270BDC04600080040FFFCFFFFE2
:1017D00000B5072805D800F0F9FA1304040B0D1919
:1017E000061F172000BD0223174A116A0B4313621C
:1017F0000020F7E70223144A91690B439361F7E74E
:101800000223114A118A0B431382F1E702230E4A85
:10181000918A0B439382EBE702230C4A11680B4336
:101820001360802311689943074B89B29984102172
:10183000D8680842FCD09168D962516899621268F0
:1018400092B29A84D4E7C04600080040B800002055
:101850007FB5C2221E21194BD2009A60184A00247B
:10186000536801AD8B43536001232B70E0B2290014
:10187000144B013498471C2CF8D100246B460126E8
:101880005C709E701C7068460F4B98470F4B06208B
:1018900098470F4B98470F4B29001C725C729C7243
:1018A000DC72062320002B700B4B6E606C702C7268
:1018B0006C7298472000094B98477FBD0008004094
:1018C00000400041011B000095170000D1170000E7
:1018D000ED180000000400400D190000B1190000CF
:1018E000014B5878C0097047000C00400823054A96
:1018F00091690B4393610123034A137011781942D4
:10190000FCD1704700040040000C0040F8B50C7892
:101910004B782402060005000443002B02D08023EC
:10192000DB021C434B7A002B02D080231B031C4399
:101930004B68012B12D95D1E1D400222002D06D0DE
:101940001D02802335439B0207E0013552009A4275
:10195000FBD380232D0235435B031C430B7A002B02
:1019600002D080239B031C430C4FB8470028FBD1B7
:101970000B4B98470B4B1E70B8470028FCD10A4B05
:101980009D601D00B8470028FCD180226B68520280
:1019900013401C436C60054B9847F8BDE1180000EC
:1019A000B9160000080C0040000C0040ED160000C5
:1019B00070B50500094CA0470028FBD1084B98479B
:1019C000084B1D70A0470028FCD18023064A5B020B
:1019D00051680B435360054B984770BDE1180000F8
:1019E000B9160000040C0040000C0040ED16000089
:1019F000F7B50700184EB0470028FBD1174B9847A2
:101A0000174B1F700193B0470028FCD1154D164BA2
:101A10006868C004C00E98470400019B1F706B6883
:101A2000DB02DB0F0193114B1F70B0470028FCD184
:101A3000AD680F4B9847019B2D022D0C002B08D150
:101A4000012D04D9200029000A4B984704002000EA
:101A5000FEBD0135EC40FAE7E1180000B9160000C0
:101A6000040C0040000C00401D170000080C004052
:101A7000ED160000E11D000010B50400064B98476C
:101A8000064B074A1C7080235188DB010B435380AF
:101A9000044B984710BDC046B9160000020C004028
:101AA000000C0040ED16000010B504000E4B9847E6
:101AB0000E4B0F4A1C700F4B0F4C5888598800056D
:101AC000114059805988000F21405980110080220F
:101AD000D2015C881442FCD15A8800020A400243B9
:101AE0005A80064B984710BDB9160000020C004002
:101AF000FFF0FFFF000C0040FFBFFFFFED160000EE
:101B000010B50C78034B240204439847024BA4B24F
:101B10005C8010BDA91A0000000C004010B5040044
:101B2000064B9847064B1C70064B5C88064B2405F9
:101B3000240F98472000054B984710BDB9160000A8
:101B4000020C0040000C0040ED160000F1190000EE
:101B5000D37830B5002B35D11478802C03D0802376
:101B600024065B02234302255478AC4306D19478C3
:101B7000002C24D18024A402234341605478013CEA
:101B8000012C01D8124C2340A0248DB2E4052C4333
:101B90001C438462D0240D0C24062C431C43846215
:101BA000D478002C0AD15B0303D59378012B0CD198
:101BB00081615378013B012B00D8816030BDC02486
:101BC000E402D9E741600023DEE74161F1E7C04666
:101BD000FFFFFBFF10B503000A004409C109002004
:101BE000814202D10449E00140181F210B401E39F7
:101BF0009940024B984710BD00440041511B000022
:101C00007047000010B5054B9847054B9847054BAA
:101C10009847054B9847054B984710BD5118000051
:101C2000B5160000011C0000B9010000011C0000F5
:101C3000FEE700001148124970B5884204D0002325
:101C4000104CCA18A24213D300210F4B0F4A9342E3
:101C500012D3FF210E4B0F4A8B43936080230E4A11
:101C600051680B4353600D4B98470D4B9847FEE767
:101C7000C55804331560E4E702C3E8E79028000084
:101C8000000000207400002074000020CC0100201F
:101C90000000000000ED00E000400041651F000072
:101CA000691D0000054B02001968002901D1044993
:101CB0001960186882181A607047C046CC0000206E
:101CC000D02100207047000010B502000223062139
:101CD000014C1820A04710BD59130000F0B508258D
:101CE00089B006AC01902A00174E184904A8B047E5
:101CF0002A0000212000164B98470E230322154985
:101D000003A82370B047144E2A0004A9134D3000D5
:101D1000A847019B124F1A783900124B20009847B0
:101D2000210002223000A847019B39005A78200088
:101D30000C4B9847210002223000A847032203A938
:101D40003000A84709B0F0BDAD1F000035280000E5
:101D5000BF1F00002428000040010020D50D000016
:101D600030280000D11F0000F7B5114B9847114BE8
:101D70009847114B9847E0236A4613700023642765
:101D8000012601AC2380AA33237020000B4B984717
:101D900020000B4B984738000A4B984733006A469F
:101DA0003100094D1820A8473800064B9847ECE74A
:101DB000051C000005160000FD110000C91C0000F4
:101DC000DD1C000009140000E512000002B4714699
:101DD00049084900095C49008E4402BC7047C0466E
:101DE000002243088B4274D303098B425FD3030A5A
:101DF0008B4244D3030B8B4228D3030C8B420DD36D
:101E0000FF22090212BA030C8B4202D312120902FA
:101E100065D0030B8B4219D300E0090AC30B8B4238
:101E200001D3CB03C01A5241830B8B4201D38B03E6
:101E3000C01A5241430B8B4201D34B03C01A52418B
:101E4000030B8B4201D30B03C01A5241C30A8B42CE
:101E500001D3CB02C01A5241830A8B4201D38B02B9
:101E6000C01A5241430A8B4201D34B02C01A52415D
:101E7000030A8B4201D30B02C01A5241CDD2C309CF
:101E80008B4201D3CB01C01A524183098B4201D34B
:101E90008B01C01A524143098B4201D34B01C01A36
:101EA000524103098B4201D30B01C01A5241C308AE
:101EB0008B4201D3CB00C01A524183088B4201D31D
:101EC0008B00C01A524143088B4201D34B00C01A09
:101ED0005241411A00D20146524110467047FFE775
:101EE00001B5002000F006F802BDC0460029F7D079
:101EF00076E770477047C0469140031C90409C466F
:101F0000203A9340194352426346D34019437047E5
:101F1000F0B5CE46474615042D0C2E0080B50704BB
:101F2000140C3F0C9946030C7E435D4367436343A7
:101F30007F19340CE4199C46A54203D980235B0227
:101F40009846C4444B46514343433604360C250C53
:101F500024046544A4195918491920000CBC904662
:101F60009946F0BD70B500260C4D0D4C641BA410B5
:101F7000A64209D1002600F07BFC0A4D0A4C641BE6
:101F8000A410A64205D170BDB300EB5898470136A6
:101F9000EEE7B300EB5898470136F2E77C280000E3
:101FA0007C2800007C28000080280000002310B559
:101FB0009A4200D110BDCC5CC4540133F8E7030051
:101FC0008218934200D1704719700133F9E700007D
:101FD0000EB410B59DB002A9029008610B4882248E
:101FE00088604861012040421FABC881084804CB8B
:101FF000A400006801938C8100F06EF80023029A1F
:1020000013701DB010BC08BC03B01847FFFFFF7F62
:1020100010000020F0B58E6885B007000C00039218
:1020200001939E4239D890238A89DB001A4234D02A
:102030000325096923685B1A0293636902985D436B
:10204000EB0F5D19019B6D1001331B18AB4200D9DA
:102050001D00530532D52900380000F031FB061E63
:1020600009D10C233B6040230120A2894042134345
:10207000A38105B0F0BD029A2169FFF797FFA389FC
:10208000144A1A4080231343A381029B2661F61849
:1020900026606561019EED1AA560019BB34200D2E6
:1020A0001E0032000399206800F0ADFAA3680020FA
:1020B0009B1BA36023689E192660DAE72A0038007C
:1020C00000F05CFB061EE0D12169380000F0AEFA9A
:1020D000C7E7C0467FFBFFFFF0B59FB002900593B6
:1020E0008B890F0016001B0611D50B69002B0ED132
:1020F000402100F0E5FA38603861002805D10C2352
:10210000029A013813601FB0F0BD40237B610023A9
:1021100006AD6B6120336B761033AB7634002378D9
:10212000002B47D1A31B04930DD0A31B3200390011
:102130000298FFF76FFF431C00D1B5E06A69049B6A
:10214000944663446B612378002B00D1ACE00122FC
:10215000002352426A6002A95432521801342B60A3
:10216000EB60AB601370AB65584E052221783000F0
:1021700000F03EFA621C002820D12968CB0604D565
:10218000532302AE20309B1918700B0704D553233C
:102190002B2002AE9B19187023782A2B16D0002012
:1021A0000A21099B2278303A092A55D9002815D0EE
:1021B000099313E0252BB5D00134B0E70123801B30
:1021C0008340296814000B432B60CDE7059B181D45
:1021D0001B680590002B39DB0993140023782E2B04
:1021E0000BD16378621C2A2B3ED1059B02341A1D49
:1021F0001B680592002B34DB0793354E21780322B0
:10220000300000F0F5F9002806D04023801B834001
:102210002A68013413432B60217806222D48661C5E
:10222000297600F0E5F9002846D02B4B002B2FD162
:102230002968059B0722C90528D59B1893430833B5
:1022400005936B69039A9B186B6167E75B42EB60D0
:1022500002230B432B60C0E74B4301349B18012042
:10226000A0E701235B42C7E7002314000A201A00FD
:102270006B6021783039092903D9002BBDD0079232
:10228000BBE74243013452180123F2E70733D5E795
:1022900005AB00933A00114B2900029800E000BF03
:1022A0000390039B0133CCD1BB890B985B0600D410
:1022B00029E70120404226E705AB00933A00074B8F
:1022C0002900029800F07AF8EAE7C0463D280000AD
:1022D00043280000472800000000000015200000EF
:1022E000F7B5150001938A680B6900900C009342C2
:1022F00000DA130022002B6043321278002A01D04A
:1023000001332B6023689B0602D52B6802332B60B8
:10231000062723681F4027D0230043331B785A1E0B
:1023200093412268920630D42200019943320098EA
:10233000089EB047431C25D0062320682A68E16820
:1023400003400025042B03D18D1AEB43DB171D40FE
:10235000A3682269934201DD9B1AED180027BD4254
:1023600020D1002010E00137E3682A689B1A9F42C1
:10237000D2DA22000123193201990098089EB04751
:10238000431CF0D101204042FEBD3020E118433112
:10239000087021005A1C45310978A21843320233D3
:1023A0001170C1E7220001231A3201990098089E9A
:1023B000B047431CE6D00137D1E70000F0B58BB041
:1023C00006920A0043320793059004920A7E0C009D
:1023D000109B6E2A00D18FE017D8632A2CD008D822
:1023E000002A00D199E0582A54D026004236327093
:1023F00029E0642A01D0692AF7D121681A68080601
:1024000023D5111D1960156825E0732A00D188E0D5
:1024100008D86F2A29D0702AE7D1202209680A43F8
:10242000226003E0752A20D0782ADED122007821AC
:10243000453211706C4A30E00E001A684236111DA8
:10244000196013683370012379E04906D9D5111D4D
:1024500019600023D55E002D03DA2D23049A6D4206
:102460001370624B0A2703932FE020681968050652
:1024700003D5081D18600D6805E04006F9D50D6804
:10248000081D1860ADB2594B082703936F2A18D066
:102490000A2716E045310A70544A03921A682168E7
:1024A000101D18601568080622D5CB0702D5202319
:1024B000194321601027002D03D1202322689A435D
:1024C00022602300002243331A706368A360002B4C
:1024D0005CDB0422216891432160002D58D1049EC9
:1024E000002B64D02600039B42361B7833705EE0DD
:1024F0004806DAD5ADB2D8E709681A68080605D5E6
:10250000111D1960136862691A6006E04906F7D563
:10251000111D19601368A28A1A800023049E23618A
:1025200054E01A68111D19601668002162683000B5
:1025300000F05EF8002801D0801B606063682361B2
:102540000023049A137041E023693200069905982C
:10255000079DA847431C43D0236800259B070FD441
:10256000099BE06898423DDA18003BE02200012315
:10257000193206990598079EB047431C30D00135A3
:10258000E368099A9B1A9D42F0DBE9E7002DA9D088
:10259000049E28003900FFF7A9FC039B013E5B5C09
:1025A000280033703900FFF71BFC051EF1D1082FFE
:1025B00009D12368DB0706D563682269934202DCF0
:1025C0003023013E3370049B9B1B2361079B09AAA8
:1025D00000932100069B0598FFF782FE431CB3D1B0
:1025E000012040420BB0F0BD5F2800004E280000E3
:1025F000C9B28218904201D10020704703788B4203
:10260000FBD00130F6E710B5884202D98B1898420A
:1026100008D300239A4207D0CC5CC4540133F9E7B5
:102620008B5C8354013AFBD210BD000070B50500ED
:10263000002910D00C1F2368002B00DAE4182800B2
:1026400000F0D4F81D4A1368002B05D163601460B4
:10265000280000F0CCF870BDA34209D921686018A9
:102660008342F3D118685B6841182160EEE71300DC
:102670005A68002A01D0A242F9D919685818A04214
:102680000BD120680918581819608242E0D11068EF
:102690005268411819605A60DAE7A04202D90C2347
:1026A0002B60D5E721686018824203D11068526818
:1026B0004118216062605C60CAE7C046D00000201B
:1026C000032370B5CD1C9D43083506000C2D1ED28A
:1026D0000C25A9421DD8300000F088F8254A14685E
:1026E0002100002919D1244C2368002B03D130008C
:1026F00000F06AF820602900300000F065F8431C03
:102700002CD10C233000336000F071F803E0002D71
:10271000DFDA0C233360002070BD0B685B1B1AD41A
:102720000B2B03D90B60CC18256003E08C420ED133
:1027300063681360300000F05AF8200007220B3065
:10274000231D9043C31AE7D05A42E250E4E74B6896
:1027500063600C00EEE70C004968C2E70323C41C69
:102760009C43A042E0D0211A300000F02DF8431C19
:10277000DAD1C6E7D0000020D4000020F8B5070069
:102780000D001600002905D11100FFF799FF040084
:102790002000F8BD002A03D1FFF748FF3400F7E717
:1027A00000F026F82C008642F2D931003800FFF7FD
:1027B00087FF041EECD029003200FFF7F7FB290049
:1027C0003800FFF733FFE3E7002370B5064C050040
:1027D00008002360FFF766FA431C03D12368002B2F
:1027E00000D02B6070BDC046C80100207047704704
:1027F0000B1F1B68181F002B01DA0B58C0187047FD
:1028000000080042000C0042001000420014004288
:1028100000180042001C004248656C6C6F20576F26
:10282000726C64210D0A000D0A4563686F3A20003E
:1028300025303258004D666749443A2000232D3038
:102840002B2000686C4C00656667454647003031B8
:102850003233343536373839414243444546003007
:102860003132333435363738396162636465660036
:10287000F8B5C046F8BC08BC9E467047CD000000C5
:10288000F8B5C046F8BC08BC9E467047A5000000DD
:102890000D0A0000401F00000800000001000000B9
:1028A00014000020000000000000000000000000F4
:1028B0000000000000000000000000000000000018
:1028C0000000000000000000000000000000000008
:1028D00000000000000000000000000000000000F8
:1028E00000000000000000000000000000000000E8
:1028F00000000000000000000000000000000000D8
:0429000000000000D3
:0400000300001C35A8
:00000001FF
