:10000000D0210020E91D0000E51D0000E51D0000D5
:1000100000000000000000000000000000000000E0
:10002000000000000000000000000000E51D0000CE
:100030000000000000000000E51D0000A51E0000FB
:10004000E51D0000E51D0000E51D0000E51D0000A8
:1000500051010000E51D0000E51D000055120000E3
:100060006512000075120000851200009512000054
:10007000A5120000E51D0000E51D0000E51D0000C3
:10008000E51D0000E51D0000E51D0000E51D000068
:10009000E51D0000E51D0000E51D0000E51D000058
:1000A000E51D000010B5064C2378002B07D1054B49
:1000B000002B02D0044800E000BF0123237010BDD4
:1000C0007400002000000000A42A0000084B10B5B6
:1000D000002B03D00749084800E000BF0748036829
:1000E000002B00D110BD064B002BFBD09847F9E741
:1000F0000000000078000020A42A0000A42A0000CC
:10010000000000001723002A01D0180070478B0060
:10011000064A9B58002B03D0834205D01D23F4E7E9
:10012000890088500023F0E70023EEE7DC00002080
:100130001723002901D01800704700221F2800D87B
:10014000024A01238340D3600023F4E700180040F3
:1001500070B50022104B1A70002310491F25104E55
:100160000D4C0AE00D4908E023780133DBB223701F
:100170000F2B10D800211F2BF4D928001840012282
:10018000824008691042EFD00A619B009B59002B06
:10019000EAD09847E8E770BDD8000020001800407A
:1001A000DC000020044A137802210B4313705378BB
:1001B0005BB2002BFBDB70470018004000B583B03A
:1001C000124A936940210B43936101A900230B70EC
:1001D00003200F4B984703200E4B98470E4A137885
:1001E00001210B43137053785BB2002BFBDB0B4BED
:1001F00019004031002204C39942FCD11022084B5F
:100200001A60084B984703B000BDC0460004004088
:100210008D1C0000011C000000180040DC000020C4
:1002200000E100E0A501000000230360436001221B
:100230000272427283720233C3727047F0B583B0A8
:1002400005000C0001A900234B70CB7023790B70C3
:10025000237A8B702078154B984700201F2D00D8EB
:10026000134807222A409200E77AA37A002B01D094
:1002700008231F43EB089B00C31899690F2696407B
:10028000B14397403A000A439A61637A002B06D142
:1002900043690122AA409343436103B0F0BD426920
:1002A0000123AB4013434361F7E7C046851D0000BF
:1002B000001800400268138A1BB2002BFBDB70475A
:1002C00003689A7B920707D502229A731B8A9B07C1
:1002D0004120DB17184070471A8A520706D5596823
:1002E000C02292020A435A601820F4E70020F2E785
:1002F00030B50268002301240225917B21420BD1F5
:10030000917B294206D101339BB201899942F4D8ED
:10031000122002E0002000E0002030BDF0B5DE46F3
:1003200057464E464546E0B583B006008946056807
:100330004C880B885B0001221343DBB22B75324BD8
:10034000984701906B68314A13406B60002807D0D2
:10035000019803B03CBC90469946A246AB46F0BD1E
:1003600030002B4B984701900028F1D1013CA4B2FA
:100370008046284B9A46284B9B4611E03000D847D0
:1003800043465F1CBFB22B7E4A46526841465354D7
:1003900030001D4B9847013CA4B2002812D1B8464A
:1003A000544511D02B8A9B062BD5F37A002BE5D030
:1003B000002CE3D16A688023DB0213436B60013CAD
:1003C000A4B2EDE7B8460190B37A002B10D030000C
:1003D000114B98476A68C0239B0213436B6030003F
:1003E0000D4B98472A7E4B465B6841465A54AFE70F
:1003F0003000094B98476A6880235B0213436B60A7
:10040000EDE741230193A3E7F1020000FFFFFBFFAB
:10041000C1020000FFFF0000B5020000F0B5DE469B
:1004200057464E464546E0B583B006000F000568C6
:100430004C88244B98473B885B00DBB22B7530001F
:10044000214B98470190002807D0019803B03CBC8D
:1004500090469946A246AB46F0BD30001B4B9847EC
:10046000031E0190F1D1A046002420339946154B7C
:100470009B46154B9A46444514D02B8A4A46134254
:100480001CD03000D8477B681B5D2B763000D047EE
:10049000002806D12B8A01345B07ECD51E2301937B
:1004A00000E00190B37A002BCFD03000054B984785
:1004B0006A68C0239B0213436B60C6E74123019324
:1004C000C3E7C046B5020000F1020000C10200000F
:1004D000F0B5CE46474680B583B007000D00160044
:1004E00039600800524B9847524A116A841C012314
:1004F000A3400B43136201A933790B700D30C4B2D2
:1005000020004D4B984720004C4B984730790021F4
:100510004B4B98472B681C209B0704D503B00CBCA1
:1005200090469946F0BD2B681738DB07F6D438683B
:100530003F4B9846984704004249434B9847A400D4
:10054000424BE75000233B767B76002291467B832B
:10055000BB8325224946B9543B6214332B603C6867
:100560002000C047804680236A4613706B464A4687
:100570005A7001236A4693706B464A46DA70706976
:10058000B569002848D06B46187002236A4653703C
:10059000000CC0B269462E4B9847002D41D06B46E7
:1005A0001D7002236A465370280CC0B26946284B5E
:1005B0009847B389FB80F3893B81327C8023002AF2
:1005C00004D1244B9B789B07DB0FDB01B2681343FC
:1005D000327F002A02D08022D20513432268316A7A
:1005E0000A431343236080235B00636045460D3557
:1005F000E8B2194B98473368FA21C90059434B1E9A
:100600001818164B9847431F4020FF2B00D985E749
:10061000DBB26381002081E700212000104B984766
:10062000B1E7012120000E4B98470500B7E7C0460F
:10063000CD0C0000000400408D1C0000011C0000D7
:10064000090B0000C1070000E91100001C01002097
:10065000851D000000200041A91C0000C91F0000EA
:10066000550B000010B5838B9BB20522002B01D0E7
:10067000100010BD01338372C372024B9847020011
:10068000F6E7C0461D03000010B5838B9BB2052220
:10069000002B01D0100010BD01338372C372024BD6
:1006A00098470200F6E7C0461D0400000268138A5E
:1006B0001BB2002BFBDB704770B504000668458B4E
:1006C000838BED1AADB2838B013B9BB28383838B0B
:1006D0009BB2002B1CD1C37A002B04D072688023FC
:1006E000DB0213437360A37A002B08D020000F4B6A
:1006F00098477268C0239B02134373600CE020008C
:100700000A4B9847726880235B021343736003E0CF
:100710007368074A134073602000044B9847236AAC
:100720005D19337EDBB22B7070BDC046AD06000094
:10073000FFFFFBFF70B5040005682B8A5B0703D53C
:100740001E222523C25470BD468B838BF61AB6B287
:10075000838B013B9BB28383034B9847236A9E198B
:100760003378DBB22B76EEE7AD060000931C9B00DE
:10077000C3185960037E012191400B43DBB203761D
:10078000704710B5838B9BB20522002B01D010005F
:1007900010BD01338372C37202684C6804624C88D6
:1007A0008483242403551F3C2433C454223B5373B5
:1007B0000B885B0001210B43DBB213750022E6E7D7
:1007C00070B580006E4BC4582668637E257E1D4040
:1007D000638B9BB2002B03D1A38B9BB2002B41D127
:1007E000638B9BB2002B08D0A38B9BB2002B04D150
:1007F0002533E35C052B00D166E0638B9BB2002BB5
:100800000AD0A38B9BB2002B06D0338A9B0600D55F
:100810007BE041222523E254638B9BB2002B08D05E
:10082000A38B9BB2002B04D12533E35C052B00D1B5
:1008300077E02523E35C052B13D02523E35C002B15
:100840000FD00323337300236383A3832533E35C37
:10085000412B03D0A37A002B00D084E06B0700D596
:100860008AE070BDB37BDB0707D50123B373338AFE
:100870009B0702D541222523E254338A5B0707D523
:1008800018222523E2540023A383A37A002B0ED140
:10089000A38B9BB263832523E35C052BBCD11F3361
:1008A000E35C002B0CD02000364B9847B4E72000C7
:1008B000354B98477268C0239B0213437360E7E788
:1008C0002000324B9847A7E71F33E35C002B00D092
:1008D00093E7033333730023638325330022E25409
:1008E000A37A002B08D10123B373EB0700D493E75D
:1008F000E368200098478FE72000234B98477268F1
:10090000C0239B0213437360EFE72423E35C002BB7
:1009100003D120001D4B98477EE72000194B9847D4
:100920007AE71F33E35C012B00D082E70233337395
:100930000023638325330022E254AB0703D524232D
:10094000E35C012B0BD0EB0700D472E72423E35CBC
:10095000002B00D06DE7E3682000984769E7236922
:100960002000984765E72000074B98477268E0230E
:10097000DB021343736071E763692000984770E7F7
:100980001C010020B9060000AD060000350700007C
:10099000F0B5DE4657464E464546E0B587B0804640
:1009A000049116001F000022002300218B463F24E3
:1009B00001202100009601975C460394444605946B
:1009C00013E02024641A0500E540A84614E0009CCA
:1009D000019D121BAB415C464D462C43A346039C34
:1009E00045462C430394013925D3202464420C1935
:1009F000E7D40500A540A84604008C40A146921803
:100A00005B4114001D00059E4F463E40B446049EC7
:100A100047463E40B246664657463E4303D0060030
:100A2000264332002B00009C019D9D42DBD8CED195
:100A30009442D8D8CBE7039B5846190007B03CBC7A
:100A400090469946A246AB46F0BD10B549084023F2
:100A50000024814202D2180010BD1C00091A631C38
:100A60009BB28842F9D94023FF2CF4D8148000238C
:100A7000F1E70000F0B583B00F00160008AA117866
:100A800004004C434022BC4202D9100003B0F0BD28
:100A9000002B14D1020008000021194CA0470100CE
:100AA0003A0000230020174CA04700220123121A0D
:100AB0008B41120C1B041A4332800022E5E700220E
:100AC000012BF9D10A00002300210D4CA0470200A0
:100AD0000B0000920193380000210A4CA04705004A
:100AE00080239B0140229842CFD8790FF800009ACA
:100AF000019BA047EA00821AD2B252032A43DBE7E5
:100B0000E12000009109000010B582B004000E4BF6
:100B10001B78002B07D0002905D10B4B5B78834253
:100B200010D01D200CE001A90C700C20074B984739
:100B30000C20074B9847044B5C7001221A70002070
:100B400002B010BD0020FBE7900000208D1C0000CB
:100B5000011C0000404B984231D00AD93F4B9842CB
:100B60004DD03F4B98425AD03E4B984237D0002050
:100B700070473D4B98420CD03C4B9842F7D101292D
:100B800017D000295DD0022915D0032915D00020E7
:100B9000EEE7012907D0002951D0022905D0032909
:100BA00005D00020E4E73248E2E73248E0E7324887
:100BB000DEE73248DCE73248DAE73248D8E7012995
:100BC00007D000293FD0022905D0032905D00020F5
:100BD000CEE72D48CCE72D48CAE72D48C8E70129C4
:100BE00007D0002931D0022905D0032905D00020E3
:100BF000BEE72848BCE72848BAE72848B8E70129F3
:100C000007D0002923D0022905D0032905D00020D0
:100C1000AEE72348ACE72348AAE72348A8E7012921
:100C200007D0002915D0022905D0032905D00020BE
:100C30009EE71E489CE71E489AE71E4898E71E4814
:100C400096E7032094E71D4892E71D4890E71D486A
:100C50008EE71D488CE7C046001000420018004295
:100C6000001C00420014004200080042000C004238
:100C70000300050003000600030007000300010055
:100C800003001E0003001F000300090003000A0008
:100C900003000B0003001100030012000300130007
:100CA00003000D0003000E0003000F0003001700F7
:100CB00003001800030019000300040003000800EB
:100CC0000300100003000C000300160030B587B0CD
:100CD0000B4B6A4632CB32C232CB32C2009B8342CC
:100CE0000BD001239A0069465258824206D0013344
:100CF000062BF7D1002007B030BD0023D8B2FAE7A9
:100D0000CC290000F0B5DE4657464E464546E0B5D4
:100D10008DB005000C00160029600800804B984734
:100D2000020023680520DB0706D50DB03CBC9046C9
:100D30009946A246AB46F0BD236817309B07F4D412
:100D40007849086A971C0123BB4003430B620BA937
:100D5000737F0B700D32D7B23800734B9847380051
:100D6000724B9847707F0021714B9847F37A6B71F3
:100D7000337DAB71737DEB712B6898461800684B1F
:100D800098470D3000220E2302A98C4663441A8036
:100D900033680393F3689A46B37D9B46736899461C
:100DA000002B14D080235B05994530D1F37D002BB7
:100DB00031D133691F00C0B25E4B984701000E224B
:100DC00002AB9C46624438005B4B984720E0F37DC1
:100DD000002B0BD01023009300230E2202A98C4677
:100DE0006244B1693069554FB84711E033691F005B
:100DF000C0B2504B984701001023009300230E22ED
:100E000002A88446624438004C4FB84700E00020F6
:100E1000002800D089E72A68039F138A1BB2002BA1
:100E2000FBDB0E2302AA944663441B88424653818F
:100E300053461F434B461F435B465B071F43F37DEF
:100E4000002B01D104331F43317D4904737D1B0402
:100E50000B43B17AF27A114319433389FF2B03D044
:100E60008022520417431943337F002B03D1344BA4
:100E70009B789B0701D580231F432A68138A1BB2E6
:100E8000002BFBDB434659602A68138A1BB2002BF8
:100E9000FBDB43461F600AAB80221A7000225A70A7
:100EA000DA709A70336A0693736A0793B36A089389
:100EB000F36A03930993002706AE06E02000214B56
:100EC000984707E00137042F0DD0F9B2BB009859BD
:100ED0000028F3D0431CF5D00AA90870000CC0B25A
:100EE000194B9847EEE70023AB60EB602B61AB61D9
:100EF0006B610022EB83AB832033EA540133EA5465
:100F00000133EA540133EA542868054B984704003A
:100F10000E490F4B9847A4000E4BE550002004E704
:100F2000CD0C0000000400408D1C0000011C0000DE
:100F3000090B0000A91C00004B0A0000750A000004
:100F400000200041550B0000851D0000C11000006D
:100F5000E91100001C010020C2791C23002A01D1E4
:100F600018007047C28B92B2173B002AF8D1026872
:100F7000138A1BB2002BFBDB11830221937B0B42F4
:100F8000FCD00023ECE70000F0B5CE46474680B524
:100F900083B0050001911720002A04D103B00CBCD6
:100FA00090469946F0BDEB790530002BF6D02C68C1
:100FB000238A1BB2002BFBDB013A93B29946002631
:100FC0000127204B984611E0731C9BB2019A915D5A
:100FD0006A79012A17D089B21E0028001A4B984757
:100FE0004B46013B9BB29946434513D0A37B3B4202
:100FF000EAD1144BA27B3A42E6D1012B19D0013B36
:10100000002BF7D1E0E70236B6B2019AD35C1B029F
:101010001943E2E7A37B9B070DD40A4B0221A27B75
:101020000A420AD1012B0AD0013B002BF7D1002044
:10103000B4E71220B2E70020B0E70020AEE71220AC
:10104000ACE7C046FFFF0000590F0000F8B50600EE
:101050000C00150007680A4B9847F38B9BB2002BD6
:1010600003D0084B98470520F8BDF583054B9847FA
:10107000B46105222323F254223B7B730020F3E763
:101080000518000045180000931C9B0019502021F2
:10109000012393401A00435C1343435470470000FC
:1010A00010B51723002A01D1180010BDC4790533EB
:1010B000002CF9D0014B98470300F5E74D100000D4
:1010C000F8B58000464BC5582C68238A1BB2002B0C
:1010D000FBDBA37B667B1E402023EB5C2122AF5C05
:1010E0001F40F30722D5EB8B9BB2002B1CD0AA69C3
:1010F0001378DBB2511CA961697901290ED09BB22A
:10110000DB05DB0D2383EB8B013B9BB2EB83002BD9
:101110000CD1013323730133637307E05178090263
:101120000B430232AA61EBE701232373B30706D511
:101130000223237300222133EA54FB0716D47307DA
:101140004DD5AB8B9BB2002B47D0238ADBB25A071D
:1011500020D09A070ED51A222223EA54203B23825C
:101160007B073CD52B692800984738E02800AB68FE
:101170009847E4E75A0705D51E222223EA541E3B6E
:101180002382EDE7DB07EBD513222223EA54213B30
:101190002382E5E7238BDB05DB0DDAB269690A7090
:1011A0006A69511C69616979012910D0AB8B013BD7
:1011B0009BB2AB83002B12D10433237300221E3366
:1011C000EA54BB070BD5EB682800984707E01B0AD9
:1011D00053706B6901336B61E8E704232373F8BD37
:1011E0001C01002070470000F0B50A4B1B78002B53
:1011F0000CD1094F094E0A4D0024DE515A191460D2
:101200000433182BF9D10122024B1A708000024BD3
:10121000C150F0BD9200002094000020E5110000B4
:101220001C01002000B583B007236A461370013308
:101230005370013393700133D37001331371013351
:101240005371034B98476B46185603B000BDC04618
:10125000CD0C000010B5024B1B680020984710BD54
:101260009400002010B5024B5B680120984710BD28
:101270009400002010B5024B9B680220984710BDD7
:101280009400002010B5024BDB680320984710BD86
:101290009400002010B5024B1B690420984710BD34
:1012A0009400002010B5024B5B690520984710BDE3
:1012B0009400002010B58022D201044BDA61032291
:1012C00003490448044B984710BDC0460044004100
:1012D0000000002040010020890F000010B584B0FC
:1012E00001A9094B0A0011CB11C21B781370074CDE
:1012F00009222000064B9847052206492000064B8C
:10130000984704B010BDC046F429000040010020F9
:10131000890F000070010020A110000010B50249E3
:101320000248034B984710BD64010020780100205B
:101330008307000030B58DB08023DB0500930023C8
:101340000193FF2269460A818B72CB729622920129
:10135000049201220A754A758B75CB7506930B773B
:101360004B7708930993C4239B030393104B0A9371
:10137000104B0B93104D114C6A4611492800A047A1
:101380000028F9D10C4D2C6820000E4B98471F23E4
:1013900018401E3B83400C4A13602A68138A1BB214
:1013A000002BFBDB23680222134323600DB030BD0A
:1013B000020018000200190040010020050D000085
:1013C000001400422512000000E100E070B5084C56
:1013D000002208492000084DA847012207492000A3
:1013E000A8472122A35C03210B43A35470BDC04630
:1013F00040010020B512000089100000DD1200003D
:1014000030B585B06946074B6A4631CB31C2188882
:1014100010809B7893700F220348044B984705B0C7
:1014200030BDC046E429000040010020890F0000C3
:1014300070B51D4A64231360002313711374802157
:101440008903916001214942918113771362D73357
:101450009384164BD381164B5361164B9361164CF4
:1014600016492000164B98472468238A1BB2002B8C
:10147000FBDB23680222134323600F4D2868114BC6
:1014800098471F2318401E3B83400F4A1360E8888B
:1014900000231021228A0A4204D101338342F9D366
:1014A0001023238270BDC046A00100201027000039
:1014B000030008000300090078010020001000422A
:1014C000D10400002512000000E100E010B5054C39
:1014D000002205492000054B9847637E01221343F3
:1014E000637610BD780100201D1300006D07000019
:1014F000F8B500AF1C000834E408E4006D462C1B6E
:10150000A5466E4631709BB2002B07D0002174189F
:10151000555C657001318CB29C42F8D30D4A108045
:101520005660013353800C4B00221A725A72094DD7
:101530000A4C0B4E29002000B047002807D0094A6A
:101540001388591C11800A2BF4D101204042BD465A
:10155000F8BDC0463401002064010020780100205D
:1015600089060000AC000020F0B583B0170000939E
:101570006B46DA1DD971184B18805A6001225A80C7
:1015800000221A725A721D00144C154E29002000B8
:10159000B047002809D0134A1388591C11800A2B20
:1015A000F4D10120404203B0F0BD0B4B5F606A46AE
:1015B00012885A801D00094C0B4E29002000B047AC
:1015C0000028F0D0074A1388591C11800A2BF4D147
:1015D00001204042E7E7C046640100207801002076
:1015E00089060000AC0000206506000070B50020F0
:1015F000084B98470500084CFA218900A047074B83
:10160000186007492800A047064B18600522064BC2
:101610001A6070BD751B0000C91F00000400002087
:1016200040420F000800002010E000E030B5084BF9
:101630001C68084A002580214902013807D3002C84
:10164000FBD05460956013680B42FCD0F5E730BDC9
:101650000400002010E000E000B583B001AB802260
:101660001A700A785A704A789A708A78DA70190073
:10167000014B984703B000BD851D0000054B1B6A58
:101680001B0403D52022034B5A6170472022014BD3
:101690009A61FAE70044004100B583B001A9012333
:1016A0004B7000228A700B700E20044B98478022EA
:1016B000D201034B9A6103B000BDC0465916000029
:1016C0000044004170B582B001AC01236370002278
:1016D000A2702370210006200B4DA8470B4E40231B
:1016E000B36121000520A8472023B36121002E20EB
:1016F000A847074E8023DB01B36121002220A847C1
:101700000423B36102B070BD5916000000440041CB
:101710008044004110B584B001AC2000074B9847CD
:101720000F23019300236360013323720233E372BA
:1017300021000F20024B984704B010BD2902000081
:101740003D02000010B500220F210448044B9847C9
:1017500000210F20034B984710BDC0467D160000A6
:10176000050100003101000010B50020164B98471C
:101770000138164B98420DD8154A50601548036A37
:101780001B021B0AC02109060B430362002393605E
:1017900007331360104B9847104B9847104B9847EE
:1017A000104B9847104B9847104B9847104B984751
:1017B000104B9847104B98470122104B1A70BFF3FB
:1017C0005F8F62B610BDC046751B0000FFFFFF00B3
:1017D00010E000E000ED00E099160000C5160000E2
:1017E000ED15000035130000CD130000311400008A
:1017F000CD14000015170000451700000C00002054
:10180000704700000C4B1B68002B06D1EFF31083D0
:10181000002B07D00022094B1A70074A13680133C6
:101820001360704772B6BFF35F8F0022044B1A70CB
:101830000132024B1A70F0E7B0000020B400002023
:101840000C000020084B1A68013A1A601B68002B34
:1018500009D1064B1B78002B05D00122044B1A70CE
:10186000BFF35F8F62B67047B0000020B400002065
:101870000C00002010B5072803D88000164B1B5819
:101880009F46002027E0154BD86824E0144B1B6AC4
:101890009B059B0F1348D8401DE0104B18691AE0B8
:1018A0000E4B1B6800209B0715D50D491022CB68F5
:1018B0001A42FCD0094B1B685B0701D40A480AE0B6
:1018C00000200A4B9847054B9B681B041B0C584390
:1018D00001E08020000210BD002A0000B8000020B6
:1018E0000008004000127A00006CDC02A91C000015
:1018F00070B50C490B6A0478857840780122104055
:1019000080014026B34303432A40D2018020834311
:1019100013430322224012020348034013430B6285
:1019200070BDC04600080040FFFCFFFF072803D839
:1019300080001E4B1B589F46172036E01C4A136A36
:1019400002210B43136200202FE0194A9369022100
:101950000B439361002028E0154A138A02210B43B0
:101960001382002021E0124A938A02210B439382C2
:1019700000201AE00F4B1A6802210A431A601B6804
:101980000D4A13400A4A938411001022CB681A4270
:10199000FCD0084A9168064BD96251689962126876
:1019A00092B29A84002000E000207047202A0000B4
:1019B00000080040B80000207FFF000030B585B06F
:1019C000C222D2001A4B9A601A4A53681E218B43D6
:1019D000536001236A4613700024174DE0B2694634
:1019E000A84701341C2CF9D103A800244470012518
:1019F00085700470114B98470620114B9847114B86
:101A00009847114B1C725C729C72DC7201956B469C
:101A10005C7006236A461370147254726946002083
:101A20000A4B984700200A4B984705B030BDC04686
:101A300000080040004000418D1C0000F11800002B
:101A40002D190000551A000000040040791A00000A
:101A5000311B0000064A936908210B439361012260
:101A6000044B1A7019000B781342FCD17047C04622
:101A700000040040000C004070B5060004000D7822
:101A80002D0205434B78002B02D08023DB021D433F
:101A90004B7A002B02D080231B031D43486801288A
:101AA00010D9431E184234D1022830D90223002213
:101AB00001325B009842FBD81202324314008023AB
:101AC0005B031D430B7A002B02D080239B031D4335
:101AD000134A53785BB2002BFBDB124B9847124B37
:101AE0001E700F4A53785BB2002BFBDB0C4B9C60E3
:101AF0001A0053785BB2002BFBDB094A5368802144
:101B000049020B401D435560084B984770BD0022A9
:101B1000D2E70402344380239B021D43D2E7C04630
:101B2000000C004005180000080C0040451800009B
:101B300010B504000B4A53785BB2002BFBDB0A4B59
:101B400098470A4B1C70074A53785BB2002BFBDBAB
:101B5000044A516880235B020B435360044B98474F
:101B600010BDC046000C004005180000040C0040E9
:101B70004518000070B504001A4A53785BB2002B78
:101B8000FBDB194B9847194B1C70164A53785BB214
:101B9000002BFBDB134E7068C004C00E144B98473B
:101BA0000500124B1C707668F602F60F114B1C7084
:101BB0000C4A53785BB2002BFBDB0A4B9C68240277
:101BC000240C0D4B9847002E07D1012C07D921007A
:101BD00028000A4B9847050001E00134E540280041
:101BE00070BDC046000C004005180000040C004009
:101BF00075180000080C004045180000C91F0000BF
:101C000010B50400064B9847064B1C70064A5388D3
:101C10008021C9010B435380044B984710BDC04637
:101C200005180000020C0040000C004045180000A0
:101C300010B504000F4B98470F4B1C700F4A538888
:101C40001B05180F53880E490B40538053880D49CC
:101C50000B40538011008022D2014B881342FCD1EB
:101C600006494A8803020648024013434B80064B4C
:101C7000984710BD05180000020C0040000C004001
:101C8000FFF0FFFFFFBFFFFF4518000010B50C7805
:101C900024020443024B9847A4B2024B5C8010BD5F
:101CA000311C0000000C004010B50400064B9847A2
:101CB000064B1C70064B5C882405240F054B984787
:101CC0002000054B984710BD05180000020C00408D
:101CD000000C004045180000751B000030B5D3789B
:101CE000002B35D11378802B29D01B068024640269
:101CF000234354780225AC4306D19478002C20D19C
:101D00008024A402234341605478013C012C1CD957
:101D10000D042D0CA024E4052C431C4384620D0CFF
:101D2000D02424062C431C438462D478002C22D176
:101D30005B031CD59378012B1ED0416117E0002373
:101D4000D7E7C024E4022343DDE70D4C2340DFE75F
:101D500041600C04240CA023DB05234383620C0C9C
:101D6000D0231B0623438362D378002B03D15378FF
:101D7000013B012B02D930BD8161F8E78160FAE7B0
:101D8000FFFFFBFF10B50A00C1090023002904D1A1
:101D90004309DB0105498C4663441F24204001218F
:101DA00081401800024B984710BDC04600440041D6
:101DB000DD1C00007047000010B5054B9847054B2F
:101DC0009847054B9847054B9847054B984710BDDA
:101DD000BD19000001180000B51D0000BD01000084
:101DE000B51D0000FEE7000010B51A4A1A4B9A42D2
:101DF00011D01A00194B9A420DD2194A03339B1A7B
:101E00009B0801339B000022134812498C588450D0
:101E100004329A42FAD1134A134B9A420AD2D3435C
:101E200011495B1803218B4304339B18002102C224
:101E30009342FCD10D4AFF210D4B8B4393600D4A19
:101E400053687F390B4353600B4B98470B4B9847B4
:101E5000FEE7C046A42A0000000000207400002015
:101E60000400002074000020CC01002000ED00E000
:101E70000000000000400041352100005D1F00000F
:101E80000300064A1268002A04D0044A1068C318E6
:101E9000136070470249014A1160F6E7CC00002048
:101EA000D02100207047000010B502000223062157
:101EB0001820034CA0478022D201024BDA6110BDEA
:101EC0006915000000440041F0B5D6464F4680B584
:101ED00087B0814604AF1A4B3A0003CB03C202AC71
:101EE000082200212000174B98470E23237001AED3
:101EF000154B1A8832809B78B370144D0822390034
:101F00002800134FB8474B461A7812492000124B4D
:101F10009A469847022221002800B8474B465A7833
:101F20000C492000D047022221002800B847032294
:101F300031002800B84707B00CBC91469A46F0BD66
:101F4000482A00007D210000F02900004001002007
:101F5000890F0000402A00008D210000F0B583B0F9
:101F6000114B9847114B9847114B9847E02201AB12
:101F70001A7000236A461380AA3313700D4F0E4E59
:101F80000E4C6846B8476846B0476420A047012316
:101F900001AA012118200A4DA8478022D201094B2D
:101FA000DA616420A047ECE7B91D00006917000062
:101FB00001140000A91E0000C91E00002D1600001B
:101FC000F114000000440041002243088B4274D306
:101FD00003098B425FD3030A8B4244D3030B8B422A
:101FE00028D3030C8B420DD3FF22090212BA030C33
:101FF0008B4202D31212090265D0030B8B4219D314
:1020000000E0090AC30B8B4201D3CB03C01A524133
:10201000830B8B4201D38B03C01A5241430B8B427B
:1020200001D34B03C01A5241030B8B4201D30B0364
:10203000C01A5241C30A8B4201D3CB02C01A52418B
:10204000830A8B4201D38B02C01A5241430A8B424E
:1020500001D34B02C01A5241030A8B4201D30B0237
:10206000C01A5241CDD2C3098B4201D3CB01C01A51
:10207000524183098B4201D38B01C01A524143095B
:102080008B4201D34B01C01A524103098B4201D349
:102090000B01C01A5241C3088B4201D3CB00C01AB6
:1020A000524183088B4201D38B00C01A524143082E
:1020B0008B4201D34B00C01A5241411A00D2014653
:1020C000524110467047FFE701B5002000F006F8C6
:1020D00002BDC0460029F7D076E770477047C0467A
:1020E000F0B5CE46474615042D0C2E0080B50704EA
:1020F000140C3F0C9946030C7E435D4367436343D6
:102100007F19340CE4199C46A54203D980235B0255
:102110009846C4444B46514343433604360C250C81
:1021200024046544A4195918491920000CBC904690
:102130009946F0BD70B500260C4D0D4C641BA410E3
:10214000A64209D1002600F09DFC0A4D0A4C641BF2
:10215000A410A64205D170BDB300EB5898470136D4
:10216000EEE7B300EB5898470136F2E7902A0000FB
:10217000902A0000902A0000942A00000300821890
:10218000934200D1704719700133F9E70EB410B5CE
:102190009DB002A9029008610B48822488604861C2
:1021A000012040421FABC881084804CBA40000684E
:1021B00001938C8100F06EF80023029A13701DB019
:1021C00010BC08BC03B01847FFFFFF7F10000020C1
:1021D000F0B58E6885B007000C00039201939E4213
:1021E00039D890238A89DB001A4234D00325096943
:1021F00023685B1A0293636902985D43EB0F5D19D4
:10220000019B6D1001331B18AB4200D91D00530513
:1022100032D52900380000F039FB061E09D10C2305
:102220003B6040230120A28940421343A38105B0B3
:10223000F0BD029A216900F0C4FAA389144A1A4039
:1022400080231343A381029B2661F61826606561F3
:10225000019EED1AA560019BB34200D21E00320020
:102260000399206800F0B6FAA36800209B1BA360C6
:1022700023689E192660DAE72A00380000F064FB24
:10228000061EE0D12169380000F0B6FAC7E7C04663
:102290007FFBFFFFF0B59FB0029005938B890F0085
:1022A00016001B0611D50B69002B0ED1402100F042
:1022B000EDFA38603861002805D10C23029A013804
:1022C00013601FB0F0BD40237B61002306AD6B613E
:1022D00020336B761033AB7634002378002B47D154
:1022E000A31B04930DD0A31B320039000298FFF703
:1022F0006FFF431C00D1B5E06A69049B94466344B8
:102300006B612378002B00D1ACE001220023524204
:102310006A6002A95432521801342B60EB60AB6042
:102320001370AB65584E05222178300000F03EFA5C
:10233000621C002820D12968CB0604D5532302AEA5
:1023400020309B1918700B0704D553232B2002AEA5
:102350009B19187023782A2B16D000200A21099B7C
:102360002278303A092A55D9002815D0099313E06C
:10237000252BB5D00134B0E70123801B83402968A9
:1023800014000B432B60CDE7059B181D1B680590BF
:10239000002B39DB0993140023782E2B0BD16378A3
:1023A000621C2A2B3ED1059B02341A1D1B68059224
:1023B000002B34DB0793354E21780322300000F0E8
:1023C000F5F9002806D04023801B83402A68013499
:1023D00013432B60217806222D48661C297600F0D5
:1023E000E5F9002846D02B4B002B2FD12968059BFF
:1023F0000722C90528D59B189343083305936B69B9
:10240000039A9B186B6167E75B42EB6002230B4307
:102410002B60C0E74B4301349B180120A0E7012348
:102420005B42C7E7002314000A201A006B60217882
:102430003039092903D9002BBDD00792BBE74243AD
:10244000013452180123F2E70733D5E705AB0093B7
:102450003A00114B2900029800E000BF0390039B53
:102460000133CCD1BB890B985B0600D429E701204E
:10247000404226E705AB00933A00074B290002983B
:1024800000F07AF8EAE7C046502A0000562A000019
:102490005A2A000000000000D1210000F7B5150005
:1024A00001938A680B6900900C00934200DA1300D4
:1024B00022002B6043321278002A01D001332B60B6
:1024C00023689B0602D52B6802332B6006272368FE
:1024D0001F4027D0230043331B785A1E93412268A4
:1024E000920630D42200019943320098089EB047EA
:1024F000431C25D0062320682A68E1680340002594
:10250000042B03D18D1AEB43DB171D40A36822690E
:10251000934201DD9B1AED180027BD4220D1002017
:1025200010E00137E3682A689B1A9F42D2DA220042
:102530000123193201990098089EB047431CF0D13D
:1025400001204042FEBD3020E118433108702100D7
:102550005A1C45310978A218433202331170C1E781
:10256000220001231A3201990098089EB047431CAB
:10257000E6D00137D1E70000F0B58BB006920A0033
:1025800043320793059004920A7E0C00109B6E2A3A
:1025900000D18FE017D8632A2CD008D8002A00D1A8
:1025A00099E0582A54D026004236327029E0642A35
:1025B00001D0692AF7D121681A68080623D5111DB0
:1025C0001960156825E0732A00D188E008D86F2AC1
:1025D00029D0702AE7D1202209680A43226003E04B
:1025E000752A20D0782ADED1220078214532117058
:1025F0006C4A30E00E001A684236111D19601368EB
:102600003370012379E04906D9D5111D19600023E3
:10261000D55E002D03DA2D23049A6D421370624BB0
:102620000A2703932FE020681968050603D5081DC3
:1026300018600D6805E04006F9D50D68081D1860A2
:10264000ADB2594B082703936F2A18D00A2716E01A
:1026500045310A70544A03921A682168101D1860A7
:102660001568080622D5CB0702D52023194321601F
:102670001027002D03D1202322689A4322602300D3
:10268000002243331A706368A360002B5CDB0422D2
:10269000216891432160002D58D1049E002B64D005
:1026A0002600039B42361B7833705EE04806DAD57D
:1026B000ADB2D8E709681A68080605D5111D19607A
:1026C000136862691A6006E04906F7D5111D1960A2
:1026D0001368A28A1A800023049E236154E01A68BA
:1026E000111D1960166800216268300000F05EF864
:1026F000002801D0801B6060636823610023049A76
:10270000137041E02369320006990598079DA84798
:10271000431C43D0236800259B070FD4099BE06826
:1027200098423DDA18003BE0220001231932069955
:102730000598079EB047431C30D00135E368099ADD
:102740009B1A9D42F0DBE9E7002DA9D0049E2800EA
:102750003900FFF7BFFC039B013E5B5C2800337030
:102760003900FFF731FC051EF1D1082F09D123688C
:10277000DB0706D563682269934202DC3023013E01
:102780003370049B9B1B2361079B09AA00932100C4
:10279000069B0598FFF782FE431CB3D101204042FF
:1027A0000BB0F0BD722A0000612A0000C9B2821885
:1027B000904201D10020704703788B42FBD001305A
:1027C000F6E7002310B59A4200D110BDCC5CC4548A
:1027D0000133F8E710B5884202D98B18984208D324
:1027E00000239A4207D0CC5CC4540133F9E78B5CD8
:1027F0008354013AFBD210BD70B50500002910D0FA
:102800000C1F2368002B00DAE418280000F0D4F82D
:102810001D4A1368002B05D163601460280000F086
:10282000CCF870BDA34209D9216860188342F3D166
:1028300018685B6841182160EEE713005A68002AA7
:1028400001D0A242F9D919685818A0420BD12068CA
:102850000918581819608242E0D11068526841186E
:1028600019605A60DAE7A04202D90C232B60D5E741
:1028700021686018824203D11068526841182160B3
:1028800062605C60CAE7C046D0000020032370B5D8
:10289000CD1C9D43083506000C2D1ED20C25A942E7
:1028A0001DD8300000F088F8254A1468210000295E
:1028B00019D1244C2368002B03D1300000F06AF8B2
:1028C00020602900300000F065F8431C2CD10C2357
:1028D0003000336000F071F803E0002DDFDA0C23E4
:1028E0003360002070BD0B685B1B1AD40B2B03D91F
:1028F0000B60CC18256003E08C420ED16368136036
:10290000300000F05AF8200007220B30231D9043BE
:10291000C31AE7D05A42E250E4E74B6863600C0008
:10292000EEE70C004968C2E70323C41C9C43A042A5
:10293000E0D0211A300000F02DF8431CDAD1C6E7B0
:10294000D0000020D4000020F8B507000D001600CC
:10295000002905D11100FFF799FF04002000F8BD00
:10296000002A03D1FFF748FF3400F7E700F026F80C
:102970002C008642F2D931003800FFF787FF041E91
:10298000ECD029003200FFF71CFF29003800FFF7C8
:1029900033FFE3E7002370B5064C05000800236011
:1029A000FFF76EFA431C03D12368002B00D02B6085
:1029B00070BDC046C8010020704770470B1F1B68E0
:1029C000181F002B01DA0B58C0187047000800428E
:1029D000000C0042001000420014004200180042A7
:1029E000001C004248656C6C6F20576F726C64214C
:1029F0000D0A00000D0A4563686F3A2000000000D0
:102A0000861800008218000082180000D21800000A
:102A1000D21800009A1800008C180000A0180000BE
:102A2000581900003819000038190000A8190000D2
:102A30004A190000661900003C19000074190000D2
:102A400025303258000000004D666749443A2000A6
:102A5000232D302B2000686C4C0065666745464787
:102A6000003031323334353637383941424344450A
:102A70004600303132333435363738396162636479
:102A800065660000F8B5C046F8BC08BC9E467047B5
:102A9000CD000000F8B5C046F8BC08BC9E467047A3
:042AA000A50000008D
:102AA4000D0A0000401F00000800000001000000A3
:102AB40014000020000000000000000000000000DE
:102AC4000000000000000000000000000000000002
:102AD40000000000000000000000000000000000F2
:102AE40000000000000000000000000000000000E2
:102AF40000000000000000000000000000000000D2
:102B040000000000000000000000000000000000C1
:042B140000000000BD
:0400000300001DE9F3
:00000001FF
